{
  "contractName": "EFarming",
  "abi": [
    {
      "anonymous": false,
      "inputs": [
        {
          "indexed": true,
          "internalType": "address",
          "name": "_userAddress",
          "type": "address"
        },
        {
          "indexed": false,
          "internalType": "string",
          "name": "_role",
          "type": "string"
        }
      ],
      "name": "loginEvent",
      "type": "event"
    },
    {
      "anonymous": false,
      "inputs": [
        {
          "indexed": true,
          "internalType": "uint256",
          "name": "_userId",
          "type": "uint256"
        },
        {
          "indexed": false,
          "internalType": "string",
          "name": "_role",
          "type": "string"
        }
      ],
      "name": "registeredEvent",
      "type": "event"
    },
    {
      "constant": true,
      "inputs": [
        {
          "internalType": "address",
          "name": "",
          "type": "address"
        }
      ],
      "name": "registered",
      "outputs": [
        {
          "internalType": "bool",
          "name": "",
          "type": "bool"
        }
      ],
      "payable": false,
      "stateMutability": "view",
      "type": "function"
    },
    {
      "constant": true,
      "inputs": [
        {
          "internalType": "address",
          "name": "",
          "type": "address"
        }
      ],
      "name": "users",
      "outputs": [
        {
          "internalType": "uint256",
          "name": "id",
          "type": "uint256"
        },
        {
          "internalType": "string",
          "name": "name",
          "type": "string"
        },
        {
          "internalType": "string",
          "name": "role",
          "type": "string"
        }
      ],
      "payable": false,
      "stateMutability": "view",
      "type": "function"
    },
    {
      "constant": true,
      "inputs": [],
      "name": "usersCount",
      "outputs": [
        {
          "internalType": "uint256",
          "name": "",
          "type": "uint256"
        }
      ],
      "payable": false,
      "stateMutability": "view",
      "type": "function"
    },
    {
      "constant": false,
      "inputs": [
        {
          "internalType": "string",
          "name": "_name",
          "type": "string"
        },
        {
          "internalType": "string",
          "name": "_role",
          "type": "string"
        }
      ],
      "name": "register",
      "outputs": [],
      "payable": false,
      "stateMutability": "nonpayable",
      "type": "function"
    },
    {
      "constant": true,
      "inputs": [],
      "name": "getUserRole",
      "outputs": [
        {
          "internalType": "string",
          "name": "",
          "type": "string"
        }
      ],
      "payable": false,
      "stateMutability": "view",
      "type": "function"
    },
    {
      "constant": false,
      "inputs": [],
      "name": "emitLoginEvent",
      "outputs": [],
      "payable": false,
      "stateMutability": "nonpayable",
      "type": "function"
    }
  ],
  "bytecode": "0x608060405234801561001057600080fd5b50610f98806100206000396000f3fe608060405234801561001057600080fd5b50600436106100625760003560e01c80633ffbd47f146100675780636ba13a82146101b95780638b77068a146101d7578063a87430ba146101e1578063b2dd5c0714610311578063bf04a10d1461036d575b600080fd5b6101b76004803603604081101561007d57600080fd5b810190808035906020019064010000000081111561009a57600080fd5b8201836020820111156100ac57600080fd5b803590602001918460018302840111640100000000831117156100ce57600080fd5b91908080601f016020809104026020016040519081016040528093929190818152602001838380828437600081840152601f19601f8201169050808301925050505050505091929192908035906020019064010000000081111561013157600080fd5b82018360208201111561014357600080fd5b8035906020019184600183028401116401000000008311171561016557600080fd5b91908080601f016020809104026020016040519081016040528093929190818152602001838380828437600081840152601f19601f8201169050808301925050505050505091929192905050506103f0565b005b6101c16109cd565b6040518082815260200191505060405180910390f35b6101df6109d3565b005b610223600480360360208110156101f757600080fd5b81019080803573ffffffffffffffffffffffffffffffffffffffff169060200190929190505050610ba4565b604051808481526020018060200180602001838103835285818151815260200191508051906020019080838360005b8381101561026d578082015181840152602081019050610252565b50505050905090810190601f16801561029a5780820380516001836020036101000a031916815260200191505b50838103825284818151815260200191508051906020019080838360005b838110156102d35780820151818401526020810190506102b8565b50505050905090810190601f1680156103005780820380516001836020036101000a031916815260200191505b509550505050505060405180910390f35b6103536004803603602081101561032757600080fd5b81019080803573ffffffffffffffffffffffffffffffffffffffff169060200190929190505050610cfe565b604051808215151515815260200191505060405180910390f35b610375610d1e565b6040518080602001828103825283818151815260200191508051906020019080838360005b838110156103b557808201518184015260208101905061039a565b50505050905090810190601f1680156103e25780820380516001836020036101000a031916815260200191505b509250505060405180910390f35b600160003373ffffffffffffffffffffffffffffffffffffffff1673ffffffffffffffffffffffffffffffffffffffff16815260200190815260200160002060009054906101000a900460ff16156104b0576040517f08c379a00000000000000000000000000000000000000000000000000000000081526004018080602001828103825260178152602001807f5573657220616c7265616479207265676973746572656400000000000000000081525060200191505060405180910390fd5b60405160200180807f6661726d65720000000000000000000000000000000000000000000000000000815250600601905060405160208183030381529060405280519060200120816040516020018082805190602001908083835b6020831061052e578051825260208201915060208101905060208303925061050b565b6001836020036101000a03801982511681845116808217855250505050505090500191505060405160208183030381529060405280519060200120148061062b575060405160200180807f6d616e7566616374757265720000000000000000000000000000000000000000815250600c01905060405160208183030381529060405280519060200120816040516020018082805190602001908083835b602083106105ee57805182526020820191506020810190506020830392506105cb565b6001836020036101000a03801982511681845116808217855250505050505090500191505060405160208183030381529060405280519060200120145b806106ec575060405160200180807f72657461696c6572000000000000000000000000000000000000000000000000815250600801905060405160208183030381529060405280519060200120816040516020018082805190602001908083835b602083106106af578051825260208201915060208101905060208303925061068c565b6001836020036101000a03801982511681845116808217855250505050505090500191505060405160208183030381529060405280519060200120145b806107ad575060405160200180807f637573746f6d6572000000000000000000000000000000000000000000000000815250600801905060405160208183030381529060405280519060200120816040516020018082805190602001908083835b60208310610770578051825260208201915060208101905060208303925061074d565b6001836020036101000a03801982511681845116808217855250505050505090500191505060405160208183030381529060405280519060200120145b61081f576040517f08c379a000000000000000000000000000000000000000000000000000000000815260040180806020018281038252600c8152602001807f496e76616c696420726f6c65000000000000000000000000000000000000000081525060200191505060405180910390fd5b60026000815480929190600101919050555060405180606001604052806002548152602001838152602001828152506000803373ffffffffffffffffffffffffffffffffffffffff1673ffffffffffffffffffffffffffffffffffffffff1681526020019081526020016000206000820151816000015560208201518160010190805190602001906108b2929190610ebe565b5060408201518160020190805190602001906108cf929190610ebe565b5090505060018060003373ffffffffffffffffffffffffffffffffffffffff1673ffffffffffffffffffffffffffffffffffffffff16815260200190815260200160002060006101000a81548160ff0219169083151502179055506002547f90cb3d9fe001d84914809dc3887b13f6cfb0d8aa20aa2656e0be5b314aafb2fb826040518080602001828103825283818151815260200191508051906020019080838360005b8381101561098f578082015181840152602081019050610974565b50505050905090810190601f1680156109bc5780820380516001836020036101000a031916815260200191505b509250505060405180910390a25050565b60025481565b600160003373ffffffffffffffffffffffffffffffffffffffff1673ffffffffffffffffffffffffffffffffffffffff16815260200190815260200160002060009054906101000a900460ff16610a92576040517f08c379a00000000000000000000000000000000000000000000000000000000081526004018080602001828103825260138152602001807f55736572206e6f7420726567697374657265640000000000000000000000000081525060200191505060405180910390fd5b3373ffffffffffffffffffffffffffffffffffffffff167fdb1d70846bbcc9f53990716ef2e3ca2976fc8c49baddd5897174b1d0f12bd87c6000803373ffffffffffffffffffffffffffffffffffffffff1673ffffffffffffffffffffffffffffffffffffffff1681526020019081526020016000206002016040518080602001828103825283818154600181600116156101000203166002900481526020019150805460018160011615610100020316600290048015610b945780601f10610b6957610100808354040283529160200191610b94565b820191906000526020600020905b815481529060010190602001808311610b7757829003601f168201915b50509250505060405180910390a2565b6000602052806000526040600020600091509050806000015490806001018054600181600116156101000203166002900480601f016020809104026020016040519081016040528092919081815260200182805460018160011615610100020316600290048015610c565780601f10610c2b57610100808354040283529160200191610c56565b820191906000526020600020905b815481529060010190602001808311610c3957829003601f168201915b505050505090806002018054600181600116156101000203166002900480601f016020809104026020016040519081016040528092919081815260200182805460018160011615610100020316600290048015610cf45780601f10610cc957610100808354040283529160200191610cf4565b820191906000526020600020905b815481529060010190602001808311610cd757829003601f168201915b5050505050905083565b60016020528060005260406000206000915054906101000a900460ff1681565b6060600160003373ffffffffffffffffffffffffffffffffffffffff1673ffffffffffffffffffffffffffffffffffffffff16815260200190815260200160002060009054906101000a900460ff16610ddf576040517f08c379a00000000000000000000000000000000000000000000000000000000081526004018080602001828103825260138152602001807f55736572206e6f7420726567697374657265640000000000000000000000000081525060200191505060405180910390fd5b6000803373ffffffffffffffffffffffffffffffffffffffff1673ffffffffffffffffffffffffffffffffffffffff1681526020019081526020016000206002018054600181600116156101000203166002900480601f016020809104026020016040519081016040528092919081815260200182805460018160011615610100020316600290048015610eb45780601f10610e8957610100808354040283529160200191610eb4565b820191906000526020600020905b815481529060010190602001808311610e9757829003601f168201915b5050505050905090565b828054600181600116156101000203166002900490600052602060002090601f016020900481019282601f10610eff57805160ff1916838001178555610f2d565b82800160010185558215610f2d579182015b82811115610f2c578251825591602001919060010190610f11565b5b509050610f3a9190610f3e565b5090565b610f6091905b80821115610f5c576000816000905550600101610f44565b5090565b9056fea265627a7a72315820628ce01414da9e500f1d9c6fc2ff123991eaaa97b787563f1a0c6333908f73a564736f6c63430005100032",
  "source": "// SPDX-License-Identifier: MIT \r\npragma solidity ^0.5.16;\r\n\r\ncontract EFarming {\r\n    // Model a User\r\n    struct User {\r\n        uint id;\r\n        string name;\r\n        string role; // \"farmer\", \"manufacturer\", \"retailer\", \"customer\"\r\n    }\r\n\r\n    // Store users\r\n    mapping(address => User) public users;\r\n    // Store accounts that have registered\r\n    mapping(address => bool) public registered;\r\n    // Store users count\r\n    uint public usersCount;\r\n\r\n    // Registered event\r\n    event registeredEvent (\r\n        uint indexed _userId,\r\n        string _role\r\n    );\r\n\r\n    // Login event\r\n    event loginEvent (\r\n        address indexed _userAddress,\r\n        string _role\r\n    );\r\n\r\n    // Register a new user\r\n    function register(string memory _name, string memory _role) public {\r\n        // Require that the user has not registered before\r\n        require(!registered[msg.sender], \"User already registered\");\r\n\r\n        // Require a valid role\r\n        require(\r\n            keccak256(abi.encodePacked(_role)) == keccak256(abi.encodePacked(\"farmer\")) ||\r\n            keccak256(abi.encodePacked(_role)) == keccak256(abi.encodePacked(\"manufacturer\")) ||\r\n            keccak256(abi.encodePacked(_role)) == keccak256(abi.encodePacked(\"retailer\")) ||\r\n            keccak256(abi.encodePacked(_role)) == keccak256(abi.encodePacked(\"customer\")),\r\n            \"Invalid role\"\r\n        );\r\n\r\n        // Increment user count\r\n        usersCount++;\r\n\r\n        // Create a new user\r\n        users[msg.sender] = User(usersCount, _name, _role);\r\n\r\n        // Mark user as registered\r\n        registered[msg.sender] = true;\r\n\r\n        // Trigger registered event\r\n        emit registeredEvent(usersCount, _role);\r\n    }\r\n\r\n    // Check user role\r\n    function getUserRole() public view returns (string memory) {\r\n        // Require that the user is registered\r\n        require(registered[msg.sender], \"User not registered\");\r\n\r\n        // Return user role\r\n        return users[msg.sender].role;\r\n    }\r\n\r\n    // Emit login event\r\n    function emitLoginEvent() public {\r\n        // Require that the user is registered\r\n        require(registered[msg.sender], \"User not registered\");\r\n\r\n        // Emit login event\r\n        emit loginEvent(msg.sender, users[msg.sender].role);\r\n    }\r\n}\r\n",
  "sourcePath": "C:\\Users\\Sreej\\FarmConnect\\contracts\\FarmConnect.sol",
  "compiler": {
    "name": "solc",
    "version": "0.5.16+commit.9c3226ce.Emscripten.clang"
  },
  "schemaVersion": "3.4.16",
  "updatedAt": "2024-05-21T14:30:25.433Z",
  "networkType": "ethereum",
  "devdoc": {
    "methods": {}
  },
  "userdoc": {
    "methods": {}
  }
}